:100000000C943E000C9448000C9448000C9448005A
:100010000C9448000C9448000C9448000C94480040
:100020000C9448000C9448000C9448000C94480030
:100030000C9448000C9448000C9448000C94480020
:100040000C9448000C9448000C9448000C94480010
:100050000C9448000C9448000C9448000C94480000
:100060000C9448000C9448000C9448000C944800F0
:100070000C9448000C9448000C94480011241FBEB6
:10008000CFEFD8E0DEBFCDBF0E946C000C94A8007B
:100090000C94000090E090938900809388009093E6
:1000A0008B0080938A00E0E8F0E08081816A8083A1
:1000B000E1E8F0E080818260808310928200089500
:1000C000F8948AB18FEF8AB9E89AE9E6F0E0808186
:1000D0008160808378940895109285001092840046
:1000E0000E9460008FEF0E944A002FEF83ED90E3A3
:1000F000215080409040E1F700C0000080EC0E9459
:100100004A002FEF83ED90E3215080409040E1F7CB
:1001100000C0000080E80E944A002FEF83ED90E3CA
:10012000215080409040E1F700C0000080E40E9430
:100130004A002FEF83ED90E3215080409040E1F79B
:1001400000C0000080E00E944A0090E080E0089536
:04015000F894FFCF51
:00000001FF
