:100000000C943E000C9453000C9453000C94530039
:100010000C9453000C9453000C9453000C94530014
:100020000C9453000C9453000C9453000C94530004
:100030000C9453000C9453000C9453000C945300F4
:100040000C9453000C9453000C9453000C945300E4
:100050000C9453000C9453000C9453000C945300D4
:100060000C9453000C9453000C9453000C945300C4
:100070000C9453000C9453000C94530011241FBE95
:10008000CFEFD8E0DEBFCDBF11E0A0E0B1E0E4EEFD
:10009000F4E002C005900D92A033B107D9F70E9499
:1000A00060020C9470020C940000109A119808954C
:1000B000119A1098089581B1836081B908950F93C2
:1000C0001F93CF93DF93CDB7DEB7CF55D1090FB6CE
:1000D000F894DEBF0FBECDBF8E01015A1F4FC8017D
:1000E0000E94BA008FE2E1E0F1E0DE01D0960190DB
:1000F0000D928A95E1F72FE2AE01405D5F4F70E00F
:1001000060E0C8010E943B028FE097E20197F1F79F
:1001100000C000002FE2AE014F5F5F4F70E060E073
:10012000C8010E942C01BE016F5F7F4FCE01C096B7
:100130000E946702892B89F00E945800C8010E9422
:10014000B000C15ADF4F0FB6F894DEBF0FBECDBF6F
:10015000DF91CF911F910F9108950E945500EECF2E
:10016000089580EA809300011092B90080E28093A4
:10017000B8000895FC0180E88083CF010C94B100A1
:10018000982F9370891305C0880F806A80930001AF
:1001900008958FEF0895FA0194EA24E89093BC0043
:1001A0008091BC0087FFFCCF809100018093BB0051
:1001B0002093BC008091BC0087FFFCCF8091B900E8
:1001C000883161F784EA8093BC008091BC0087FF8E
:1001D000FCCF809100018093BB0084E88093BC0039
:1001E0008091BC0087FFFCCF7093BB0084E88093B4
:1001F000BC008091BC0087FFFCCF6093BB0084E80B
:100200008093BC008091BC0087FFFCCF8091BC0034
:1002100087FFFCCF84EA8093BC008091BC0087FFFD
:10022000FCCF809100018F5F8093BB0084E88093B6
:10023000BC008091BC0087FFFCCF84E88093BC00A9
:100240008091BC0087FFFCCF8091BB00808384E954
:100250008093BC0080E0089594EA34E89093BC0059
:100260008091BC0087FFFCCF809100018093BB0090
:100270003093BC008091BC0087FFFCCF8091B90017
:10028000883161F784EA8093BC008091BC0087FFCD
:10029000FCCF809100018093BB0084E88093BC0078
:1002A0008091BC0087FFFCCF7093BB0084E88093F3
:1002B000BC008091BC0087FFFCCF6093BB0084E84A
:1002C0008093BC008091BC0087FFFCCF84EA8093C0
:1002D000BC008091BC0087FFFCCF809100018F5F44
:1002E0008093BB0084E88093BC008091BC0087FFB2
:1002F000FCCF84EC222389F0213009F484E8809338
:10030000BC009091BC0097FD06C0FA019091BB0023
:100310009193AF01F6CF2150EDCF84E98093BC00DB
:1003200080E0089594EA24E89093BC008091BC009A
:1003300087FFFCCF809100018093BB002093BC001D
:100340008091BC0087FFFCCF8091B900883161F7B4
:1003500084EA8093BC008091BC0087FFFCCF809131
:1003600000018093BB0084E88093BC008091BC00B6
:1003700087FFFCCF7093BB0084E88093BC00809122
:10038000BC0087FFFCCF6093BB0084E88093BC0077
:100390008091BC0087FFFCCF4093BB0084E8809332
:1003A000BC008091BC0087FFFCCF84E98093BC0037
:1003B00080E00895FB01260F372F311DDC018C9161
:1003C0008150990B862B9F2B2817390718F09C0119
:1003D0002F5F3F4F822F8E1B24EA34E82093BC000E
:1003E0009091BC0097FFFCCF909100019093BB00CF
:1003F0003093BC009091BC0097FFFCCF9091B90066
:10040000983161F794EA9093BC009091BC0097FFFB
:10041000FCCF909100019093BB0094E89093BC00B6
:100420009091BC0097FFFCCFF093BB0094E89093B1
:10043000BC009091BC0097FFFCCFE093BB0094E818
:100440009093BC009091BC0097FFFCCF982F24E8BC
:10045000992369F0FA0131913093BB002093BC00DD
:100460003091BC0037FFFCCF9150AF01F1CF94E940
:100470009093BC000895DF92EF92FF920F931F9329
:10048000CF93DF93D82ED92F7B018A01C22F2C2F37
:10049000A801B7018D2D9D2F0E94DA01282F30E091
:1004A000E20EF31EC81B020F131FC111F0CF80E034
:1004B000DF91CF911F910F91FF90EF90DF90089502
:1004C0000E945B000E945F0090E080E00895FB01C5
:1004D000DC018D91019080190110D9F3990B0895D9
:0404E000F894FFCFBE
:1004E400A02A502A4F2A4C2A592A542A452A432AF8
:1004F400482A4E2A492A512A552A452A202A4D2A71
:100504004F2A4E2A542A522A452A412A4C2A0000AC
:00000001FF
