:100000000C943E000C9453000C9453000C94530039
:100010000C9453000C9453000C9453000C94530014
:100020000C9453000C9453000C9453000C94530004
:100030000C9453000C9453000C9453000C945300F4
:100040000C9453000C9453000C9453000C945300E4
:100050000C9453000C9453000C9453000C945300D4
:100060000C9453000C9453000C9453000C945300C4
:100070000C9453000C9453000C94530011241FBE95
:10008000CFEFD8E0DEBFCDBF11E0A0E0B1E0E6E405
:10009000F1E002C005900D92A631B107D9F70E9498
:1000A0006D000C94A1000C94000083E08AB90895BF
:1000B0001092C5008FEC8093C4001092C00088E1BC
:1000C0008093C10086E08093C20008959091C000A3
:1000D00095FFFCCF8093C6000895CDB7DEB7659736
:1000E0000FB6F894DEBF0FBECDBF83E08AB90E9481
:1000F000580025E1E0E0F1E0CE010196DC0101903D
:100100000D922A95E1F724E6F22EE82EB92E6E0123
:1001100085E1C80ED11C0E2D1B2DF80181918F0198
:100120000E9466000C151D05C1F7FA94F110F3CF7B
:1001300090E080E065960FB6F894DEBF0FBECDBFAD
:060140000895F894FFCFC2
:100146004C6520726F626F7420656E20494E463191
:060156003930300A000000
:00000001FF
