:100000000C943E000C9453000C9453000C94530039
:100010000C9453000C9453000C9453000C94530014
:100020000C9453000C9453000C9453000C94530004
:100030000C9453000C9453000C9453000C945300F4
:100040000C9453000C9453000C9453000C945300E4
:100050000C9453000C9453000C9453000C945300D4
:100060000C9453000C9453000C9453000C945300C4
:100070000C9453000C9453000C94530011241FBE95
:10008000CFEFD8E0DEBFCDBF11E0A0E0B1E0EEE001
:10009000F5E002C005900D92A033B107D9F70E9498
:1000A0007E020C9485020C9400008AB183608AB9A8
:1000B0000895CF92DF92EF92FF920F931F93CF9309
:1000C000DF93CDB7DEB7E2970FB6F894DEBF0FBE71
:1000D000CDBF7E0182E3E80EF11CC7010E94C00083
:1000E0008FE2E1E0F1E0DE01119601900D928A9538
:1000F000E1F72FE2AE014F5F5F4F70E060E0C701B4
:100100000E9441028FE097E20197F1F700C00000E2
:100110006E0191E3C90ED11CC6010E94750210E068
:1001200000E0AE01405D5F4FB801C7010E94D10001
:1001300068A9C6010E9477020F5F1F4F0F3F11058C
:1001400081F7C6010E946602C7010E94B600E296CE
:100150000FB6F894DEBF0FBECDBFDF91CF911F91D8
:100160000F91FF90EF90DF90CF900895089580EA6F
:10017000809300011092B90080E28093B800089546
:10018000FC0180E88083CF010C94B700982F937016
:10019000891305C0880F806A8093000108958FEF4E
:1001A0000895FA0194EA24E89093BC008091BC0081
:1001B00087FFFCCF809100018093BB002093BC009F
:1001C0008091BC0087FFFCCF8091B900883161F736
:1001D00084EA8093BC008091BC0087FFFCCF8091B3
:1001E00000018093BB0084E88093BC008091BC0038
:1001F00087FFFCCF7093BB0084E88093BC008091A4
:10020000BC0087FFFCCF6093BB0084E88093BC00F8
:100210008091BC0087FFFCCF8091BC0087FFFCCFA2
:1002200084EA8093BC008091BC0087FFFCCF809162
:1002300000018F5F8093BB0084E88093BC008091B5
:10024000BC0087FFFCCF84E88093BC008091BC0099
:1002500087FFFCCF8091BB00808384E98093BC0042
:1002600080E0089594EA34E89093BC008091BC004B
:1002700087FFFCCF809100018093BB003093BC00CE
:100280008091BC0087FFFCCF8091B900883161F775
:1002900084EA8093BC008091BC0087FFFCCF8091F2
:1002A00000018093BB0084E88093BC008091BC0077
:1002B00087FFFCCF7093BB0084E88093BC008091E3
:1002C000BC0087FFFCCF6093BB0084E88093BC0038
:1002D0008091BC0087FFFCCF84EA8093BC008091B2
:1002E000BC0087FFFCCF809100018F5F8093BB0033
:1002F00084E88093BC008091BC0087FFFCCF84EC35
:10030000222389F0213009F484E88093BC00909185
:10031000BC0097FD06C0FA019091BB009193AF011C
:10032000F6CF2150EDCF84E98093BC0080E00895A2
:1003300094EA24E89093BC008091BC0087FFFCCF36
:10034000809100018093BB002093BC008091BC0091
:1003500087FFFCCF8091B900883161F784EA8093F0
:10036000BC008091BC0087FFFCCF8091000180938E
:10037000BB0084E88093BC008091BC0087FFFCCF69
:100380007093BB0084E88093BC008091BC0087FF21
:10039000FCCF6093BB0084E88093BC008091BC00DC
:1003A00087FFFCCF4093BB0084E88093BC00809122
:1003B000BC0087FFFCCF84E98093BC0080E00895F7
:1003C000FB01260F372F311DDC018C918150990BD9
:1003D000862B9F2B2817390718F09C012F5F3F4F62
:1003E000822F8E1B24EA34E82093BC009091BC003D
:1003F00097FFFCCF909100019093BB003093BC001D
:100400009091BC0097FFFCCF9091B900983161F7B3
:1004100094EA9093BC009091BC0097FFFCCF909120
:1004200000019093BB0094E89093BC009091BC00B5
:1004300097FFFCCFF093BB0094E89093BC009091A1
:10044000BC0097FFFCCFE093BB0094E89093BC0006
:100450009091BC0097FFFCCF982F24E8992369F076
:10046000FA0131913093BB002093BC003091BC0065
:1004700037FFFCCF9150AF01F1CF94E99093BC00CE
:100480000895DF92EF92FF920F931F93CF93DF9324
:10049000D82ED92F7B018A01C22F2C2FA801B7019A
:1004A0008D2D9D2F0E94E001282F30E0E20EF31EDB
:1004B000C81B020F131FC111F0CF80E0DF91CF9155
:1004C0001F910F91FF90EF90DF9008950895109283
:1004D000C5008FEC8093C4001092C00088E1809327
:1004E000C10086E08093C20008950C946702809159
:1004F000C00085FFFCCF6093C60008950E945500A0
:0E0500000E94590090E080E00895F894FFCF2B
:10050E00A02A502A4F2A4C2A592A542A452A432ACD
:10051E00482A4E2A492A512A552A452A202A4D2A46
:10052E004F2A4E2A542A522A452A412A4C2A000082
:00000001FF
