:100000000C943E000C946D000C9450000C94500025
:100010000C9450000C9450000C9450000C94500020
:100020000C9450000C9450000C9450000C94500010
:100030000C9450000C9467000C9450000C945000E9
:100040000C9450000C9450000C9450000C945000F0
:100050000C9450000C9450000C9450000C945000E0
:100060000C9450000C9450000C9450000C945000D0
:100070000C9450000C9450000C94500011241FBE9E
:10008000CFEFD8E0DEBFCDBF21E0A0E0B1E001C0FE
:100090001D92A230B207E1F70E94CC000C94D90067
:1000A0000C94000082B112B80895109A0895119A24
:1000B0000895F89481B1836081B98AB18AB9E89AC8
:1000C000E9E6F0E0808181608083789408958F93E1
:1000D00081E0809301018F9118951F921FB61F92A6
:1000E00011248F939F938FE59AEE0197F1F700C04B
:1000F0000000109200014A9B03C081E08093000140
:100100009F918F911F901FBE1F9018951092010113
:10011000109285001092840090938900809388004B
:10012000E0E8F0E0808180688083E1E8F0E08081B1
:100130008560808310928200EFE6F0E0808182602B
:100140008083089580910101811104C08091000194
:100150008823C1F3F89480910001882321F00E9444
:100160005700789408950E945500FBCF2FEF83E24B
:1001700094EF215080409040E1F700C000000E94C1
:1001800055002FEF80E792E0215080409040E1F74A
:1001900000C000000C9452000E9459000E94B6005A
:1001A0008CE09EE10E9486000E94A20090E080E028
:0601B0000895F894FFCF52
:00000001FF
