:100000000C943E000C9448000C9448000C9448005A
:100010000C9448000C9448000C9448000C94480040
:100020000C9448000C9448000C9448000C94480030
:100030000C9448000C9448000C9448000C94480020
:100040000C9448000C9448000C9448000C94480010
:100050000C9448000C9448000C9448000C94480000
:100060000C9448000C9448000C9448000C944800F0
:100070000C9448000C9448000C94480011241FBEB6
:10008000CFEFD8E0DEBFCDBF0E94A3000C94A70045
:100090000C9400008FEF81B981B1836081B91AB8E7
:1000A000089512B8089581E082B9089582E082B976
:1000B000089583E321E092E022B9EFE9FFE0319770
:1000C000F1F700C0000092B9EFE9FFE03197F1F7D6
:1000D00000C00000815081F708954A9B0BC08FE15A
:1000E0009EE40197F1F700C0000089B182FB8827E8
:1000F00080F9089580E00895D1E0C2E00E946D008B
:10010000811102C0D2B9FACF0E946D00882319F084
:100110000E945900F9CF0E946D00811102C0C2B93E
:10012000FACF0E946D00882311F0D2B9FACF0E9455
:100130006D00811102C012B8FACF0E946D008823B1
:10014000E9F2C2B9FACF0E944A000E947C00F894FA
:02015000FFCFDF
:00000001FF
