:100000000C943E000C94BD000C9450000C945000D5
:100010000C9450000C9450000C9450000C94500020
:100020000C9450000C9450000C9450000C94500010
:100030000C9450000C9450000C9450000C94500000
:100040000C9450000C9450000C9450000C945000F0
:100050000C9450000C9450000C9450000C945000E0
:100060000C9450000C9450000C9450000C945000D0
:100070000C9450000C9450000C94500011241FBE9E
:10008000CFEFD8E0DEBFCDBF21E0A0E0B1E001C0FE
:100090001D92A230B207E1F70E94F8000C94FB0019
:1000A0000C94000012B8089581E082B9089582E0AE
:1000B00082B9089583E321E092E022B9EFE9FFE0FD
:1000C0003197F1F700C0000092B9EFE9FFE03197F6
:1000D000F1F700C00000815081F708954A9B0BC0E2
:1000E0008FE19EE40197F1F700C0000089B182FB27
:1000F000882780F9089580E00895CF9380910001CA
:10010000909101018330910549F15CF481309105B2
:10011000E1F082309105E9F0C1E0892B71F0CF91D7
:1001200008958430910519F10597C9F7C2E00E943E
:100130006E008823A1F3C2B9FACF0E946E0081112C
:1001400004C0C2B9FACF0E945A000E946E00811109
:10015000FACFC2E00E946E00882339F0C1E00E940D
:100160006E00882321F0C2B9FACFC2B9F3CF0E9442
:100170006E008111DBCF12B8FACF1F920F920FB62B
:100180000F9211242F933F934F935F936F937F931D
:100190008F939F93AF93BF93EF93FF938FE59AEE67
:1001A0000197F1F700C000000E946E000E947D00E0
:1001B000E09AFF91EF91BF91AF919F918F917F91C5
:1001C0006F915F914F913F912F910F900FBE0F90C4
:1001D0001F901895F89481B1836081B98AB18AB96A
:1001E000E89AE9E6F0E08081816080837894089560
:0A01F0000E94EA00FFCFF894FFCF51
:00000001FF
